:0A000000021107758DD6758B0B32C7
:06000B0002096E00000076
:10001B000200037893E27014FBEB25E02403F874E1
:10002B0003F2087476F20BEBB448EE227896E2FFFB
:10003B0008E27800CFF208EFF2789DE2600608083C
:10004B00E2FA80027A487895E214B4080040030281
:10005B00065790006B75F003A4C58325F0C5837319
:10006B0002008302024A0203EF020603020332027A
:10007B0004800205410205AB789CE2704BFBEBC39D
:10008B009A502A7800E2FE08E2FFEB25E02403F801
:10009B00EEF208EFF2EF240BFFE43EFE7C027DFD57
:1000AB00120D337800ECF208EDF20B80D1AB02EBC2
:1000BB00C394484003020201EB25E02403F87403C8
:1000CB00F2087476F20B80E7789CE2640170547B43
:1000DB0048C374489AFFEBD39F402A7800E2FE088E
:1000EB00E2FFEB25E02401F8EEF208EFF2EF240B30
:1000FB00FFE43EFE7C027DFD120D337800ECF2082E
:10010B00EDF21B80CCC374489AFBEBD394005003E5
:10011B00020201EB25E02401F87403F2087476F275
:10012B001B80E7789CE264027052FB7800E2FE08C9
:10013B00E2FFEB25E02403F8EEF208EFF2EF240BDD
:10014B00FFE43EFE7C027DFD120D337800ECF208DD
:10015B00EDF20BEBB448D4EAC313FBEAC313FFC3B2
:10016B0074489FFFEBC39F4003020201EB25E02481
:10017B0003F87403F2087476F20B80DF789CE26468
:10018B000370737B487800E2FE08E2FFEB25E02466
:10019B0001F8EEF208EFF2EF240BFFE43EFE7C02D7
:1001AB007DFD120D337800ECF208EDF2DBD7E4FBAA
:1001BB00EAFFC374489FFFE49400C313EF13FFEBF4
:1001CB00C39F5010EB25E02403F87403F2087476F8
:1001DB00F20B80DC7B48EA2448FFE433C313EF13B4
:1001EB00FFEBD39F4010EB25E02401F87403F208DA
:1001FB007476F21B80E078BBE2FE08E2FF7C007DA8
:10020B0028120D33D3ED9403EC94005023C378974D
:10021B00E2940B18E29400500C08E224F2F218E27C
:10022B003402F2800B7897E224F5F218E234FFF2F5
:10023B00789FE2700218E2700302065702032BE468
:10024B00FBEBC39A50157800E2FE08E2FFEB25E0CA
:10025B002403F8EEF208EFF20B80E6789CE2FF70D5
:10026B001BAB02EBC39448400302031FEB25E024B6
:10027B0003F87403F2087476F20B80E7EFB4011EF7
:10028B00C374489AFBEBD39400500302031FEB2576
:10029B00E02401F87403F2087476F21B80E7789C73
:1002AB00E2FF64027022EAC313FBEAC313FEC374BA
:1002BB00489EFEEBC39E505CEB25E02403F87403D1
:1002CB00F2087476F20B80E2EF64037047FBEAFFEF
:1002DB00C374489FFFE49400C313EF13FFEBC39F5A
:1002EB005010EB25E02403F87403F2087476F20B3C
:1002FB0080DC7B48EA2448FFE433C313EF13FFEBA6
:10030B00D39F4010EB25E02401F87403F2087476B8
:10031B00F21B80E0789FE2700218E270030206572E
:10032B00789FE224FF8069E4FB7800E2FE08E2FF9D
:10033B00EB25E02403F8EEF208EFF2EF24FFFFE4E5
:10034B003EFE7C027DFD120D337800ECF208EDF2DF
:10035B000BEBB448D4789DE2703D78BBE2FE08E22B
:10036B00FF7C007DC8120D33D3ED9403EC94004059
:10037B0003020657C37897E294FF18E29400500BE0
:10038B0008E224FEF218E23401F2227897E224010B
:10039B00F218E234FFF222789FE2700218E2700347
:1003AB0002065778BBE2FE08E2FF7C007D64120D6B
:1003BB0033D3ED9403EC940040030205FCC3789710
:1003CB00E294FF18E29400500D08E224FEF218E2CA
:1003DB003401F20205FC7897E22401F218E234FFB3
:1003EB00F20205FCE4FB7800E2FE08E2FFEB25E0FD
:1003FB002403F8EEF208EFF20BEBB448E9789DE238
:10040B00703478BBE2FE08E2FF7C007D28120D33CE
:10041B00D3ED9403EC940040030206577897E22443
:10042B0003FF18E23400FE7C027DFD120D3378963B
:10043B00ECF208EDF222789FE2700218E2700302F0
:10044B00065778BBE2FE08E2FF7C007D28120D33D5
:10045B00D3ED9403EC940050197897E22406FF181F
:10046B00E23400FE7C027DFD120D337896ECF2082F
:10047B00EDF20205FC78997403F218F278BBE2FEF8
:10048B0008E2FF7C007DC8120D33D3ED940AEC9487
:10049B00005005789AE204F27898E2FF08E22FFF09
:1004AB00E433FE08E2C39FEE6480F8748098400446
:1004BB00E4789AF27899E2FF08E2FED39F500A782B
:1004CB00C0EEF2087403F28009E478C0F2C3EE9F29
:1004DB0008F2789DE2600C789FE2700218E27003DC
:1004EB00020657E4FB78C0E26016E214F2EB25E05B
:1004FB002403F87403F2087476F20BEBB448E6228B
:10050B0078C1E2601BE214F27800E2FE08E2FFEB36
:10051B0025E02403F8EEF208EFF20BEBB448E122EE
:10052B007899E278C0F27898E278C1F20BEBC39439
:10053B004840B20205FC78BBE2FE08E2FF7C007D7E
:10054B0014120D33D3ED9403EC94005005789AE21A
:10055B0004F2789AE2D3944840237401F27897E23C
:10056B0024E6FF18E23400FE7C027DFD120D337889
:10057B0096ECF208EDF27800ECF208EDF2E4FB7881
:10058B009AE2FFEBC39F40030206577800E2FE0896
:10059B00E2FFEB25E02403F8EEF208EFF20B80DF2D
:1005AB00C378BCE294F418E29401501E789FE27079
:1005BB000218E27015FBEB25E02403F87403F20834
:1005CB007476F20BEBB448EE8027789DE2600978E5
:1005DB009FE2700218E26019E4FB7800E2FE08E289
:1005EB00FFEB25E02403F8EEF208EFF20BEBB44837
:1005FB00E9E4789EF208F222E4FB7800E2FE08E2DE
:10060B00FFEB25E02403F8EEF208EFF20BEBB44816
:10061B00E978BBE2FE08E2FF7C007D28120D33D3A4
:10062B00ED9403EC940050247802E2600E7894E28F
:10063B006004E214F222E47802F2227894E2C3948A
:10064B00325004E204F22278027401F22278AEE214
:10065B00600302096DC378A1E294B018E2940440E0
:10066B00177893E2FF700404F28008EFB40104E4FE
:10067B007893F278AE7401F27893E2701C7F03FEEC
:10068B00FDFC78A2E2FB08E2F908E2FA08E2CBF8FB
:10069B00C3120D88600302096D78A2E2FC08E2FD2B
:1006AB0008E2FE08E2FF120DE40748000000000715
:1006BB005F00000001077500000002077E000000CC
:1006CB0003079A0000000407AC0000000507C000F8
:1006DB0000000607D50000000707EA000000080726
:1006EB00FE0000000908130000000A0828000000A3
:1006FB000B08430000000C08570000000D086C00AD
:10070B0000000E08810000000F089C00000010087C
:10071B00B00000001108C50000001208DA0000004C
:10072B001308F400000014090700000015091B0052
:10073B00000016092F000000170000096D7894E2E5
:10074B00D394285007E2240AF20209687894743291
:10075B00F20209687894E2C394144006E224F6F29C
:10076B0080057894740AF2020968E47893F278AE03
:10077B0004F2227893E2640160057401F2800D7833
:10078B009DE27F0070027F01789DEFF2020968E421
:10079B007896F208F27895E2B401037402F202093A
:1007AB00687896E4F20874FFF27895E2B40103746A
:1007BB0002F202096878967401F20874FEF27895D9
:1007CB00E2B401037402F202096878967402F2082B
:1007DB0074FDF27895E2B401037402F202096878B1
:1007EB0096E4F208741EF27895E2B401037402F2F7
:1007FB0002096878967401F208741DF27895E2B4D8
:10080B0001037402F202096878967402F208741CF0
:10081B00F27895E2B401037402F20209687895E26A
:10082B00640860057408F2800C7899E204F2D394A2
:10083B00014002E4F20209687896E4F208743CF293
:10084B007895E2B401037402F20209687896740198
:10085B00F208743BF27895E2B401037402F20209D8
:10086B006878967402F208743AF27895E2B4010350
:10087B007402F20209687895E2640460057404F26C
:10088B00800C7899E204F2D394014002E4F202095D
:10089B00687896E4F208745AF27895E2B40103741E
:1008AB0002F202096878967401F2087459F278958D
:1008BB00E2B401037402F202096878967402F2083A
:1008CB007458F27895E2B401037402F20209687865
:1008DB0095E2640560057405F2800C789CE204F2E5
:1008EB00D394034002E4F280747896E4F208747FA8
:1008FB00F27895E2B401037402F280617896740188
:10090B00F208747EF27895E2B401037402F2804D22
:10091B0078967402F208747DF27895E2B401037450
:10092B0002F28039789DE260177895E264016002EB
:10093B008015789CE204F2D394034021E4F2801DED
:10094B007895E2640160057401F28011789CE204F1
:10095B00F2D394014007E4F278957403F278AE7405
:10096B0001F222C0E0C0F0C083C082C0D075D000BD
:10097B00C000C001C002C003C004C005C006C00750
:10098B00758CFA758A1B78B9E204F2E2640860038D
:10099B00020A23F20804F278BCE22401F218E234D2
:1009AB0000F208E2B4E80C18E2B40307E4F208F230
:1009BB000804F278AAE2FC08E2FD08E2FE08E2FF76
:1009CB00EC4D4E4F603678A6E2FC08E2FD08E2FEE5
:1009DB0008E2FF78AAE2FB08E2F908E2FA08E2CBA8
:1009EB00F8C3120D88700D78A1E22401F218E234DD
:1009FB0000F2802478A0E4F208F2801C78A1E27067
:100A0B000218E2601378A0E4F208F27895E204F29F
:100A1B00C3940940037401F2789DE2601B20811E90
:100A2B00C3789FE2944818E29400501208E2240124
:100A3B00F218E23400F28006789EE4F208F230B548
:100A4B0058C378B3E2948818E29413504C08E2240C
:100A5B0001F218E23400F2E2FA08E2FBD39402EA64
:100A6B009400401908E29428400F08120DCB0000A7
:100A7B00000078B1E4F21804F278B4E4F2D3EB940A
:100A8B0014EA94035003020C1078B0E4F278A2122B
:100A9B000DCB000000FF020C1030B503020C1078D8
:100AAB00B4E2C394C84003020C10E204F278B0E243
:100ABB00FF7003020C0A78B4E264026003020C10AC
:100ACB00EFB4012378B2E2FE08E2FFC39414EE9474
:100ADB00004011D3EF942EEE9400500878B07402BE
:100AEB00F2020C0A020C0A78B0E264026003020CF8
:100AFB001008E2C394205003E204F278B1E2FF74D1
:100B0B0001D39F4003020C08EF94204003020C0812
:100B1B0008E2FE08E2FFC39402EE9400401DD3EFFF
:100B2B009406EE9400501478B5E2FC08E2FD08E25E
:100B3B00FE08E2FF7801120DAC802F78B2E2FE08BE
:100B4B00E2FFC39408EE9400402DD3EF940FEE9484
:100B5B0000502478B5E2FC08E2FD08E2FE08E2FF53
:100B6B007801120DACEF4401FFEC78B5120DBF7894
:100B7B00B2E4F208F2800878B1E214F2020C1078B9
:100B8B00B1E26420707F78B5E2FC08E2FD08E2FE7A
:100B9B0008E2FF7810120D99E47BF7FAF9F8C3120B
:100BAB000D88706178B5E2FC08E2FD08E2FE08E210
:100BBB00FF7808120D9978B5E2FB08E2F908E2FA22
:100BCB0008E2CBF8EB2FFFEA3EE93DE83CEF54019E
:100BDB00FFE4FDFCEF602E78B50808E2FE08E2FFAB
:100BEB00121271E4FCFD78B5120DBF78B508080838
:100BFB00E2FFE4FEFDFC78A2120DBF8008800078B6
:100C0B00B2E4F208F2D007D006D005D004D003D05E
:100C1B0002D001D000D0D0D082D083D0F0D0E0323F
:100C2B00E709F608DFFA8046E709F208DFFA803EAB
:100C3B0088828C83E709F0A3DFFA8032E309F60898
:100C4B00DFFA8078E309F208DFFA807088828C8300
:100C5B00E309F0A3DFFA806489828A83E0A3F608B4
:100C6B00DFFA805889828A83E0A3F208DFFA804C8E
:100C7B0080D280FA80C680D4806980F28033801065
:100C8B0080A680EA809A80A880DA80E280CA8033CE
:100C9B0089828A83ECFAE493A3C8C582C8CCC58346
:100CAB00CCF0A3C8C582C8CCC583CCDFE9DEE78016
:100CBB000D89828A83E493A3F608DFF9ECFAA9F095
:100CCB00EDFB2289828A83ECFAE0A3C8C582C8CCEB
:100CDB00C583CCF0A3C8C582C8CCC583CCDFEADE04
:100CEB00E880DB89828A83E493A3F208DFF980CC66
:100CFB0088F0EF60010E4E60C388F0ED2402B4045F
:100D0B000050B9F582EB2402B4040050AF23234505
:100D1B008223900C7B73EF8DF0A4A8F0CF8CF0A402
:100D2B0028CE8DF0A42EFE22BC000BBE0029EF8D29
:100D3B00F084FFADF022E4CCF875F008EF2FFFEE56
:100D4B0033FEEC33FCEE9DEC984005FCEE9DFE0F64
:100D5B00D5F0E9E4CEFD22EDF8F5F0EE8420D21CBF
:100D6B00FEADF075F008EF2FFFED33FD4007985007
:100D7B0006D5F0F222C398FD0FD5F0EA22EB9FF5D2
:100D8B00F0EA9E42F0E99D42F0E89C45F022E860D3
:100D9B000FECC313FCED13FDEE13FEEF13FFD8F1B5
:100DAB0022E8600FEFC333FFEE33FEED33FDEC3380
:100DBB00FCD8F122ECF208EDF208EEF208EFF22289
:100DCB00D083D082E493F208740193F208740293F7
:100DDB00F208740393F2740473D083D082E493709B
:100DEB0012740193700DA3A393F8740193F5828889
:100DFB0083E4737402936C70127403936D700C74B0
:100E0B0004936E70067405936F60DDA3A3A3A3A375
:100E1B00A380CA78C07C007DFE7BFF7A00790E7EB2
:100E2B00007F03120CFBE4FBEB25E02403F8E2FE4E
:100E3B0008E2FF78C3EEF2FE08EFF2C394FFEE94E4
:100E4B0000504118E2FE08E2FFC374FF9FFFE49ECF
:100E5B00FE7894E2FD7C00120D217D32120D337869
:100E6B00C0EFF27894E2FF7E0078C3E2FC08E2FD6B
:100E7B00120D217C007D32120D3378C1EFF2E408A4
:100E8B00F2020F4D78C3E2FE08E2FFC394FEEE942C
:100E9B0001502BE478C0F2C374FE9FFF74019EFED9
:100EAB007894E2FD7C00120D217D32120D3378C156
:100EBB00EFF278C4E22401FF18E234FF803B78C3E1
:100ECB00E2FE08E2FFC394FDEE94025041EF2402D0
:100EDB00FFEE34FEFE7894E2FD7C00120D217D3294
:100EEB00120D3378C0EFF2E408F278C3E2FE08E2A9
:100EFB00FFC374FD9FFF74029EFE7894E2FD7C009D
:100F0B00120D217D32120D3378C2EFF2803478C48A
:100F1B00E2B4FD1B18E2B402167894E275F07DA4DE
:100F2B00FFAEF07C007D32120D3378C0EF800E786F
:100F3B00C4E2B4760D18E2B40308E478C0F208F208
:100F4B0008F2E4FAE5BF20E7FBEA75F0038474C00E
:100F5B0025F0F8E2F5C70AEAB403E90BEB64486045
:100F6B0003020E3322E478C0F278AFE230B20525EB
:100F7B00E0F2800525E04401F2E478C0F278C0E2AB
:100F8B00FFC39401400302104574AF2FF8E2540FD6
:100F9B00704978AAE2FB08E2F908E2FA08E2CBF81A
:100FAB00C000C001C002C00378C0E2FF74017E0024
:100FBB00A807088005C333CE33CED8F9F4FFEEF47F
:100FCB00FE3395E0FDFCD003D002D001D000EB5FE7
:100FDB00FFEA5EFEE95DFDE85C805178C0E224AF7C
:100FEB00F8E2540FFFBF0F4A78AAE2FB08E2F908B8
:100FFB00E2FA08E2CBF8C000C001C002C00378C01F
:10100B00E2FF74017E00A807088005C333CE33CE00
:10101B00D8F9FFEE3395E0FDFCD003D002D001D020
:10102B0000EB4FFFEA4EFEE94DFDE84CFC78AA12AF
:10103B000DBF78C0E204F2020F8878AAE2FC08E246
:10104B00FD08E2FE08E2FF78A6020DBF81B0008129
:10105B00B10082B2000081B40084B50000000081B1
:10106B00B900A09003000000000000000000000089
:10107B000000000000000000000000000000000065
:10108B000000000000000000000000000000000055
:10109B000000000000000000000000000000000045
:1010AB000000000000000000000000000000000035
:1010BB000000000000000000000000000000000025
:1010CB000000000000000000000000000000000015
:1010DB000000000000000000000000000000000005
:1010EB0000000000000000000000000000000000F5
:1010FB00000000000081020081AF0000787FE4F661
:10110B00D8FD75810702114E021193E493A3F8E405
:10111B0093A34003F68001F208DFF48029E493A344
:10112B00F85407240CC8C333C4540F4420C883405D
:10113B0004F456800146F6DFE4800B01020408102C
:10114B00204080901057E47E019360BCA3FF543F76
:10115B0030E509541FFEE493A360010ECF54C02564
:10116B00E060A840B8E493A3FAE493A3F8E493A354
:10117B00C8C582C8CAC583CAF0A3C8C582C8CAC5B8
:10118B0083CADFE9DEE780BE12120A1212F71212CF
:10119B00C7D2AFE478BAF278BDF278BBF208F27836
:1011AB00BAE26052E4F2120F7078AAE2FC08E2FD98
:1011BB0008E2FE08E2FFEC4D4E4F70197FFFFEFD7B
:1011CB00FC78A2E2FB08E2F908E2FA08E2CBF8C3EA
:1011DB00120D8860051206588004E478AEF278BBD5
:1011EB00E2FE08E2FF7C007D14120D33ED4C70061D
:1011FB0012001E120E1E78BDE260A4E4F280A090D5
:10120B00801D7481F090813D747AF090801A748106
:10121B00F090813A747AF090801C7405F090813CC8
:10122B00747AF0C2B49080017481F0908121744A79
:10123B00F078AA120DCB0000000078A2120DCB00A3
:10124B000000FFE47893F2087432F2087401F2E4C0
:10125B0008F208F2087448F2E408F2789B7405F27D
:10126B00E408F208F22278BEEEF208EFF2E4FDFC9D
:10127B00FBFAA90374017E00A801088005C333CED5
:10128B0033CED8F9FF78BEE25EFE08E25F4E601CFB
:10129B00C3740F99FF74017E00A807088005C33340
:1012AB00CE33CED8F9FFEC4EFCED4FFD0BBB00015E
:1012BB000AEB64104A70BBAE04AF052290801C741D
:1012CB0005F0908030E04480F0E4F5AE75AD14F598
:1012DB0091759F05908061F0908060740DF075BBE7
:1012EB001AE4F5B3F5CFF5CE439004225389FC7580
:0C12FB008CFA758A1BD28CD2A9C2B922D1
:00000001FF
